{
  "_format": "hh-sol-artifact-1",
  "contractName": "EtherWallet",
  "sourceName": "contracts/EtherWallet.sol",
  "abi": [
    {
      "inputs": [],
      "stateMutability": "nonpayable",
      "type": "constructor"
    },
    {
      "anonymous": false,
      "inputs": [
        {
          "indexed": false,
          "internalType": "address",
          "name": "_sender",
          "type": "address"
        },
        {
          "indexed": false,
          "internalType": "uint256",
          "name": "amount",
          "type": "uint256"
        },
        {
          "indexed": false,
          "internalType": "address",
          "name": "recipient",
          "type": "address"
        }
      ],
      "name": "DepositEvent",
      "type": "event"
    },
    {
      "anonymous": false,
      "inputs": [
        {
          "indexed": false,
          "internalType": "address",
          "name": "_sender",
          "type": "address"
        },
        {
          "indexed": false,
          "internalType": "uint256",
          "name": "amount",
          "type": "uint256"
        },
        {
          "indexed": false,
          "internalType": "address",
          "name": "recipient",
          "type": "address"
        }
      ],
      "name": "WithdrawalEvent",
      "type": "event"
    },
    {
      "inputs": [
        {
          "internalType": "address",
          "name": "_addr",
          "type": "address"
        }
      ],
      "name": "addBlacklist",
      "outputs": [],
      "stateMutability": "nonpayable",
      "type": "function"
    },
    {
      "inputs": [],
      "name": "getBalance",
      "outputs": [
        {
          "internalType": "uint256",
          "name": "",
          "type": "uint256"
        }
      ],
      "stateMutability": "view",
      "type": "function"
    },
    {
      "inputs": [],
      "name": "getBlackList",
      "outputs": [
        {
          "internalType": "address[]",
          "name": "",
          "type": "address[]"
        }
      ],
      "stateMutability": "view",
      "type": "function"
    },
    {
      "inputs": [],
      "name": "owner",
      "outputs": [
        {
          "internalType": "address payable",
          "name": "",
          "type": "address"
        }
      ],
      "stateMutability": "view",
      "type": "function"
    },
    {
      "stateMutability": "payable",
      "type": "receive"
    }
  ],
  "bytecode": "0x608060405234801561001057600080fd5b50336000806101000a81548173ffffffffffffffffffffffffffffffffffffffff021916908373ffffffffffffffffffffffffffffffffffffffff16021790555061042f806100606000396000f3fe6080604052600436106100435760003560e01c806312065fe01461004f578063360b97b91461007a5780638da5cb5b146100a55780639cfe42da146100d05761004a565b3661004a57005b600080fd5b34801561005b57600080fd5b506100646100f9565b6040516100719190610232565b60405180910390f35b34801561008657600080fd5b5061008f610101565b60405161009c919061033d565b60405180910390f35b3480156100b157600080fd5b506100ba61018f565b6040516100c79190610380565b60405180910390f35b3480156100dc57600080fd5b506100f760048036038101906100f291906103cc565b6101b3565b005b600047905090565b6060600180548060200260200160405190810160405280929190818152602001828054801561018557602002820191906000526020600020905b8160009054906101000a900473ffffffffffffffffffffffffffffffffffffffff1673ffffffffffffffffffffffffffffffffffffffff168152602001906001019080831161013b575b5050505050905090565b60008054906101000a900473ffffffffffffffffffffffffffffffffffffffff1681565b6001819080600181540180825580915050600190039060005260206000200160009091909190916101000a81548173ffffffffffffffffffffffffffffffffffffffff021916908373ffffffffffffffffffffffffffffffffffffffff16021790555050565b6000819050919050565b61022c81610219565b82525050565b60006020820190506102476000830184610223565b92915050565b600081519050919050565b600082825260208201905092915050565b6000819050602082019050919050565b600073ffffffffffffffffffffffffffffffffffffffff82169050919050565b60006102a482610279565b9050919050565b6102b481610299565b82525050565b60006102c683836102ab565b60208301905092915050565b6000602082019050919050565b60006102ea8261024d565b6102f48185610258565b93506102ff83610269565b8060005b8381101561033057815161031788826102ba565b9750610322836102d2565b925050600181019050610303565b5085935050505092915050565b6000602082019050818103600083015261035781846102df565b905092915050565b600061036a82610279565b9050919050565b61037a8161035f565b82525050565b60006020820190506103956000830184610371565b92915050565b600080fd5b6103a981610299565b81146103b457600080fd5b50565b6000813590506103c6816103a0565b92915050565b6000602082840312156103e2576103e161039b565b5b60006103f0848285016103b7565b9150509291505056fea2646970667358221220976d33ca72ae7cbb54fff1804473d3118edc150f54bd33c6a6320f6f53f89bb464736f6c634300080d0033",
  "linkReferences": {},
  "deployedLinkReferences": {}
}